:10400000000003209D710200997102009971020065
:10401000997102009971020099710200000000007C
:104020000000000000000000000000009971020084
:1040300099710200000000009971020031720200C3
:104040009971020099710200997102009971020040
:104050009971020099710200997102009971020030
:104060009971020099710200997102009971020020
:10407000556B0200A56B0200F56B0200456C020057
:10408000956C0200E56C0200356D0200856D020042
:10409000D56D0200256E0200756E0200C56E02002D
:1040A000156F0200656F0200B56F02000570020017
:1040B0009971020099710200997102004959010039
:1040C0004959010049590100495901004959010064
:1040D00099710200997102009971020099710200B0
:1040E00099710200997102009971020099710200A0
:1040F000000000009971020099710200997102009C
:10410000997102009971020099710200997102007F
:104110009971020099710200FD4F010041510100A7
:1041200085520100C9530100997102009971020082
:104130009971020099710200315602003D56020049
:104140004956020055560200997102009971020009
:10415000997102009971020099710200997102002F
:10416000997102009971020099710200997102001F
:10417000997102009971020099710200997102000F
:104180009172010099720100A1720100A9720100EF
:1041900099710200997102009971020099710200EF
:1041A00099710200997102009971020099710200DF
:1041B00099710200997102009971020099710200CF
:1041C00099710200997102009971020099710200BF
:1041D00099710200997102009971020099710200AF
:1041E000997102009971020099710200997102009F
:1041F00099710200000000009971020025E800009A
:10420000997102009971020099710200997102007E
:10421000997102009971020099710200997102006E
:10422000997102009971020099710200997102005E
:10423000997102009971020099710200997102004E
:10424000997102009971020099710200997102003E
:10425000997102009971020099710200997102002E
:104260009971020010B5054C237833B9044B13B192
:104270000448AFF300800123237010BD80070020A5
:104280000000000030F8020008B5034B1BB10349E1
:104290000348AFF3008008BD000000008407002041
:1042A00030F80200044B03F23442824204BF002281
:1042B00083F85224704700BFB8090020084626F052
:1042C00093BE00BF30B5054685B0842023F0A4F826
:1042D0002E23009313492D232C2204461CF062FE4A
:1042E000F0221146204602231CF076FE2368204669
:1042F0001B6B00219847236820465B6C4FF6FF71CB
:104300009847012320460DF10F02C6218DF80F308A
:104310000FF0B6FB044920460FF0D4F86C6005B0EE
:1043200030BD00BF581F002080F0FA0238B50446A7
:10433000202023F071F805461CF0BEFB124AC4F899
:104340000052284626211CF0C3FB30B90E4AD4F88F
:10435000000262211CF0BCFBA0B1D4F800020021D5
:104360001CF0C0FCD4F800020A211CF06BFCD4F84D
:1043700000020A211CF0D0FCD4F8000201211CF03C
:10438000E5FC012038BD00BFD41C0020F8B5012198
:10439000302023F069FC0021102023F065FC0A2561
:1043A00000244FF6FF760121302023F0ABFC02E021
:1043B0009CB2B44213D0102023F0D2FC631C00281E
:1043C000F6D00021302023F09DFC012022F07EFF5A
:1043D000013DE8D1B4F52F7F01D9102400E000247D
:1043E0000121302023F040FC0021112023F03CFC6F
:1043F0000A2600254FF6FF770121302023F082FCAA
:1044000002E09DB2BD4213D0112023F0A9FC6B1C29
:104410000028F6D00021302023F074FC012022F087
:1044200055FF013EE8D1B5F52F7F88BF44F0200449
:104430000121302023F018FC0021122023F014FC6D
:104440000A2600254FF6FF770121302023F05AFC81
:1044500002E09DB2BD4213D0122023F081FC6B1C00
:104460000028F6D00021302023F04CFC012022F05F
:104470002DFF013EE8D1B5F52F7F88BF44F04204FF
:104480000121302023F0F0FB0021132023F0ECFB6E
:104490000A2600254FF6FF770121302023F032FC59
:1044A00002E09DB2BD4213D0132023F059FC6B1CD7
:1044B0000028F6D00021302023F024FC012022F037
:1044C00005FF013EE8D1B5F52F7F88BF44F0810498
:1044D0002046F8BD816A324B2DE9F047056A03603A
:1044E000044669B12F4E2B680A685B68A262B3422A
:1044F000084645D126F078FDA16A0029F3D1256A46
:10450000B4F8503004F12C090BB30027E36CDFF84A
:1045100094A0B8460CE026F067FDE36CC6F8008076
:10452000B4F85010C6F804800137BAB291420FD9DE
:10453000BEB203EBC606716808460029EED02B68B0
:104540005B685345E7D028469847E36CE6E7E36CA1
:1045500000214FF6FF729945A4F85010A4F854209A
:1045600007D02A680F4952688A420FD1184626F0B0
:104570003BFD04F1080011F073FD2046BDE8F08713
:1045800028469847A16A0029ADD1B8E719462846C0
:10459000904704F1080011F063FD2046BDE8F08764
:1045A00064D70200BD420000013A18BF0122012B6E
:1045B0004271016005D0032B06D043B10023037183
:1045C000704703230371704702230371704701236F
:1045D0000371704738B503460D460748194621F068
:1045E00011F9012421460D2023F08CFB284684F08C
:1045F000010422F06BFEF5E7B82000202DE9F04F12
:10460000EC4DED4889B04FF4E13112F097F82846AF
:104610000AF0B8FB002800F05A83032128460CF06A
:10462000B9FA002800F0588309F0F8FE842022F03F
:10463000F3FE2E23E14900932C222D2304461CF087
:10464000B1FCF0221146204602231CF0C5FC236871
:10465000DFF88CA31B6B2046002198472368204677
:104660005B6C4FF6FF710DF11F0698470123324630
:104670002046C6218DF81F300FF002FAD04920469F
:104680000EF020FF0022114628466C600AF08EFAD8
:10469000F0230020CAF8003027F002FCC949321A82
:1046A000C54821F0FFF828460CF09AF8C6490246A2
:1046B000C14821F0F7F822F081FE03210A2023F0FF
:1046C000D3FA0321092023F0CFFA0321062023F097
:1046D000CBFA0A2023F044FB012800F0698209206C
:1046E00023F03EFB012800F0D782062023F038FBA0
:1046F000012800F0DB82DFF8EC92B449AE48B44CFC
:10470000B44F21F001F84946AB4821F07BF822F084
:1047100055FE6B68C4F8303422F050FE6068022108
:1047200011F0A0F8D4F83004036800215B6C9847BE
:1047300004F2344011F06AF9606811F081F8C1B2F6
:1047400004F23440002511F06DFB04F234400221E4
:1047500011F09EFB2A4629462A23CDE90355CDE9CF
:10476000015504F23440009511F0CAFB03460122C2
:10477000C4F84834984904F2344011F04FFB2946FC
:1047800004F2344011F078FA606811F049F8B4F896
:10479000F021924942F00102A4F8F021B4F8F0218E
:1047A00065F34202A4F8F021B4F8F02165F3C402E5
:1047B000A4F8F021B4F8F02165F30922A4F8F0215F
:1047C000B4F8F02165F3CB22A4F8F021B4F8F0217D
:1047D00042F48052A4F8F021B4F8F02165F34F328E
:1047E000A4F8F021C4F8F801B4F8002242F0010264
:1047F000A4F80022B4F8002265F34202A4F80022D3
:10480000B4F8002265F3C402A4F80022B4F8002230
:1048100065F30922A4F80022B4F8002265F3CB2244
:10482000A4F80022B4F8002242F48052A4F8002236
:10483000B4F8002265F34F32A4F80022C4F808024D
:10484000B4F8102242F00102A4F81022B4F81022A9
:1048500065F34202A4F81022B4F8102265F3C402F2
:10486000A4F81022B4F8102265F30922A4F810224B
:10487000B4F8102265F3CB22A4F81022B4F8102269
:1048800042F48052A4F81022B4F8102265F34F329B
:10489000A4F81022C4F81802B4F8002442F001026F
:1048A000A4F80024B4F8002465F34202A4F800241C
:1048B000B4F8002465F3C402A4F80024B4F800247A
:1048C00065F30922A4F80024B4F8002465F3CB2290
:1048D000A4F80024B4F8002442F48052A4F8002480
:1048E000B4F8002465F34F32A4F80024C4F8080497
:1048F000B4F8102442F00102A4F81024B4F81024F3
:1049000065F34202A4F81024B4F81024C4F84C54FF
:1049100065F3C402A4F81024B4F81024C4F8645455
:1049200065F30922A4F81024B4F8102484F8515433
:1049300065F3CB22A4F81024B4F81024A4F8525440
:1049400042F48052A4F81024B4F8102465F34F32D6
:10495000A4F81024C4F81804B4F8202442F001028A
:10496000A4F82024B4F8202465F34202A4F82024FB
:10497000B4F8202465F3C402A4F82024B4F8202459
:1049800065F30922A4F82024B4F8202465F3CB228F
:10499000A4F82024B4F8202442F48052A4F820245F
:1049A000B4F820C4DAF8002084F8502465F34F3CB2
:1049B000032219E0A0070020B8200020581F002083
:1049C00080F0FA0234D6020050D6020070D60200FF
:1049D000B809002043000020A54200000000FFFFAE
:1049E00004000020CCD50200A4F820C4C4F8280498
:1049F000C4F8541404F25C4004F58F6184F89024E8
:104A000004F2AC4200234FF6017E4FF6FF7C0360B8
:104A10000B601360C4F85854C4F86C54C4F8705454
:104A2000C4F88054C4F87454C4F88854C4F88C543E
:104A300084F89454A4F860E4A4F87CC422F0BEFC8A
:104A40003B78002B40F0EB80A6480022FF210AF0C3
:104A5000ADF8484607F0A4F9002027F021FAA24B50
:104A60001B68301AA0EB030B22F0A8FCD4F8580402
:104A7000002800F095809D4BCDF800B09A1E991F3C
:104A800002F04EFD002840F08B80D4F8740400281A
:104A90007ED0974BABF114059A1E991F009502F03A
:104AA0003FFD002874D1934DDFF8B09222F086FCD0
:104AB000DAF8003028689049904AABF1280B013BA6
:104AC000DBB2002808BF0846CDF800B08C4902F0E0
:104AD000FDFBD9F800008B4B8B4A8C49CDF800B018
:104AE000002808BF1846002302F0F0FBD4F8740435
:104AF00008B126F079FAD4F8580408B126F074FA0F
:104B0000D9F8000008B126F06FFA286808B126F03D
:104B10006BFA09F09DFA09F0FFF9002027F0C0F9BF
:104B20007B497C4D321A7C487C4E20F0BBFE7C4B8E
:104B30001020D3F8089022F07BFE484422F08AFA35
:104B4000784BD4F83004D3ED007A774A036877497C
:104B50001B6BF8EEE77AC1ED007AC2ED007A94F8AB
:104B60009014C5ED007AC6ED007A9847704B306816
:104B700043F8040B3A78296819601ABB0022FF2118
:104B800058480AF013F822F019FC09B0BDE8F08F7C
:104B9000684BC4F880344FF00113C4F8843482E7C2
:104BA000654BC4F864344FF00113C4F868346CE703
:104BB000624928460BF07EFD00283FF490ADDFF8F7
:104BC0007C919AE522F03EFBA0EB0803B3F5FA6F67
:104BD00076D322F037FBDFF87081424F06460CE0B7
:104BE00022F0ECFBC5EB0521A8FB01316FEA511166
:104BF000C9B20022384609F0D9FF22F023FB851BF9
:104C0000B5F5FA7FECD900221146364809F0CEFFFF
:104C1000D4F83004036800215B6C9847AEE7D4F801
:104C2000303447492F480122CDE900322B462A462D
:104C30000BF0B0FDA8420CBF01232B463B707FF464
:104C400003AF40493448DFF89C8020F0DBFD22F0C0
:104C5000F9FA05460CE022F0B1FB3B4BCBEB0B2005
:104C6000A3FB0031C1F347110022404609F09EFF2B
:104C700022F0E8FAA0EB050BBBF5FA7FEBD9002296
:104C8000FF21184809F092FF22F0DCFA3B788046B9
:104C9000002B7FF4DEAED7E62C4912480BF00AFD5C
:104CA00000283FF422ADDFF8A49026E528490D48FE
:104CB0000BF000FD00283FF41EADDFF894901CE5DA
:104CC00008F5FA68A8EB000022F000FB81E7214814
:104CD0004FF49671FFF77EFC1F4840F6C411FFF7B2
:104CE00079FC00BFA007002044000020220E002015
:104CF0003E0E0020F4110020F0D50200F811002033
:104D000004110020FCD50200F40E0020E80F002062
:104D100098D60200900E0020B82000208C0E0020B3
:104D200010E000E0DC100020800E0020840E002047
:104D3000580E0020340E0020180E0020D8D5020096
:104D400080D602008CD60200D34D6210C0D502007E
:104D5000E4D5020008D602001CD60200E40F0020B1
:104D60002DE9F04F2DED028BDFF8CC9185B022F0CC
:104D700025FB99F800304BB900221146664805B072
:104D8000BDEC028BBDE8F04F09F010BF634B6449E6
:104D9000D3F8303400930122002301925E481A4672
:104DA0000BF0F8FC051E0CBF0123002389F800302E
:104DB000E2D15C485C495D4F574C0FF24C1BDBE97C
:104DC00000AB064620F01EFD0395142022F030FDB6
:104DD00007EE900AF8EE677A17EE900A25F08AFA45
:104DE00052465B4625F0DEFA25F0D4FD25F082FA26
:104DF00041EC100B41EC180B0221304620F0B6FEBE
:104E000022F020FA05460BE0C8EB082822F0D6FA7B
:104E1000A7FB0831C1F3C7110022204609F0C6FEE6
:104E200022F010FAA0EB0508B8F5FA6FECD94FF4B0
:104E30007A7022F04BFAFE25294600222046013DD9
:104E400009F0B4FEEDB222F0B9FA322022F03EFAB7
:104E5000272DF1D12EA3D3E9002351EC180B25F017
:104E600031FD00284CD1142022F0E2FC25F020FA7C
:104E700052465B4625F096FA02460B4651EC180B5B
:104E800025F020FD48B3039B072B26DD2849DFF8DA
:104E9000AC80304620F0B6FC012502E020F002FD97
:104EA00001354EF6602022F011FA142022F0C0FCE9
:104EB00025F0FEF952465B4625F074FA02460B4691
:104EC0003046414620F0EEFC142022F0B1FCB0F553
:104ED000087F18492A463046E0D9039B01331A4619
:104EE000039342F210739A427FF46FAF99F8003047
:104EF000002B3FF441AF05B0BDEC028BBDE8F08F55
:104F00000022FF213AE700BF4241295AB917783FF2
:104F1000E17A14AE47E10A40A0070020B80900205A
:104F2000A8D60200B8200020B4D60200D34D6210EB
:104F3000C4D60200ECD6020043000020D0D6020006
:104F40002DE9F04F2DED048BDFF804B1DFF804A15B
:104F50009BB000238BF800309AF85034039322F072
:104F600077F99BF8008006904FF4976303FB08A342
:104F700093F85334002B6FD0334B04934FF4976462
:104F800004FB08A393F85234002B40F01784039BD2
:104F9000002B00F04882B8F1000F05D12B4D95F998
:104FA0000000002880F23E844FF4976505FB08F46A
:104FB0000AEB040204F5F87492F85134D2F848640C
:104FC00003EB431304EB031454440FCC30609BF801
:104FD0000000716005FB00F00AEB0001F36000F2D5
:104FE00034400123B260504481F8523410F0B2FED4
:104FF0009BF8004022F02CF99BF80030049A05FB46
:1050000003A1166891F850240132D2B2B24281F85D
:105010005024A4BF002281F850244FF4976205FB6E
:1050200004A502FB03AA00229AF85134C5F84C04E7
:1050300083F001038AF853248AF851341BB0BDEC85
:10504000048BBDE8F08F00BF0400002008000020A2
:10505000880E0020B8090020039B002B00F0658219
:10506000CA4BCB4D0493049B1B680793184625F04D
:105070002FF94FF497640022C64B25F093F904FBF7
:1050800008A404F5946306460F46186825F032F923
:1050900032463B4624F0CEFF25F034FC04F2A44314
:1050A000BD4A0A901060186825F024F932463B4644
:1050B00024F0C0FF25F026FCB4F86A249FEDB77AEF
:1050C000B74B0B9007EE902AF8EE677A04F2AC41EA
:1050D00067EE877A186017EE900AD1ED007A04F235
:1050E000B44304F59662CDED057AD3ED007AD2F89B
:1050F0000090CDED087A25F0FDF804F5956406469C
:1051000020680F4625F0F6F802460B460020A54918
:1051100025F072FA0B4602463946304625F042F930
:1051200025F0F0FBA04B0F9018F0010F186000F075
:105130007783079B5E1E039BF61A4FF49763AD5D62
:1051400003FB08F30AEB0302FF2D92F8514400F031
:105150008484059825F0CEF802460B46002091493C
:1051600024F068FF914A924B925D9B5D05929B1AD9
:1051700007EE903A41EC190B0898B8EEE78A25F053
:10518000B9F853EC192B25F00DF925F003FC07EEC7
:10519000900A68EE277A04EB441417EE900A25F083
:1051A000A9F87C4B002224F047FF25F0ABFB814A95
:1051B000059B965DAD1B07EE905A07464846B8EE34
:1051C000E78A1F4425F096F853EC192B25F0EAF8EE
:1051D00025F0E0FB07EE900A68EE277A17EE900ABA
:1051E00025F088F86B4B002224F026FF25F08AFB7F
:1051F000079BBB42D4BF03F1FF3327EAE773099350
:10520000079B30448342D4BF03F1FF3320EAE073AD
:105210001A460893099B93424FF4976303FB08F3E4
:1052200080F22183119303EB0414099B002B40F3BC
:1052300094860AEB040304F50074B3F8F0215E4988
:105240006FF38A22A3F8F021099A52000AEB0400B6
:1052500092B2A3F8F2211090C3F8F4110446C3F8F7
:10526000FC01DDE90823D11A01312388039E49009E
:105270004FF497658AB243F4806305FB08A5238049
:10528000628095F85134119A03EB431302F1100038
:1052900000EB031353440B446360079995F85124C2
:1052A00001EBD1730A9902EB421200EB02128E4617
:1052B000B6EB630FB6440AEB02074FEA630980F2CC
:1052C000D2843E4A3E4812683E4900680D923E4BE9
:1052D0003E4A059008681B68149010680D99159057
:1052E00009F1FF32A2EB060C03EB0C00384C0E90D8
:1052F0000CFB0930099B24880A94013916919945C1
:10530000C9F100011290139140F318831C46D21A80
:10531000089B0C95013306464B4502F1010006EB54
:10532000000CA8BF4B460E98A7EB44011E468B1CF1
:1053300002FB09021793B81C234611781CF8014D93
:10534000FF2900F0D383BEEB010100F1E582059D4A
:105350008D4240F3E1820B9F1F443C1B00F1DC8235
:10536000A54240F3D9820D9FA7423D4601F3E88351
:105370008F4201F37F84C91BE41B07FB04141499BB
:10538000095D18911599095724E000BF0400002019
:10539000F81100200000E03FE812002000008043E8
:1053A000EC1200200000F03F1C000020F40E002052
:1053B000E80F002004110020A20E0020DC100020C5
:1053C000D8100020E4100020B4090020E8100020CC
:1053D000A00E00200029C1F21D840C9CB4F88C544E
:1053E000B4F88A741995B4F88454189C27440C9C1A
:1053F000B4F886441894199CC7F309077C40189F99
:1054000005FB04F401FB07F1C911A41205FB0144DB
:105410000C99D1F8801431F8141020F8021C179957
:1054200001EB43077EE24FF4976404FB08A30121DC
:1054300093F9080022F066FC9BF8003004FB03A3FC
:10544000586810F0B5F89BF80030C34A04FB03A37A
:1054500006CA586810F078F89BF80030039904FBEE
:1054600003A393F9080022F04DFC9BF80020049B55
:1054700004FB02A21E68D2F83004B0F90E20B0F985
:105480000C100568B3B2921B891B009302EBD27219
:1054900001EBD171C2F34F02C1F34F016D6DA8470B
:1054A000012021F005FF9BF8003004FB03A401213B
:1054B00094F9090022F026FC9BF80080B8F1000F57
:1054C0007FF472ADA54C94F90030002BC0F2188621
:1054D000A34D06992B68A34ACB1A934201F29880F8
:1054E000A14B1F68A14E90A3D3E90023D6E9000188
:1054F00024F058FF044638460D4624F0FBFE8CA3EA
:10550000D3E9002324F04EFF02460B4620462946ED
:1055100024F092FDC6E9000108F0B2FF9BF800807C
:10552000B8F1000F3FF43AAD3EE5914B1B78002BEC
:1055300040F0B6818F4B904E1868049607EE900AA3
:10554000F8EEE77A17EE900A24F0D4FE336805935C
:1055500007EE903AF8EEE77A044617EE900A0D4609
:1055600024F0C8FE74A3D3E9002324F01BFF0246F5
:105570000B462046294624F05DFD71A3D3E90023A4
:1055800024F010FF25F006FA7C4B7D4A93ED008A4B
:105590007C4BD2ED007A93ED006AB8EEC88A06EE35
:1055A000900AF0EE488AE7EEA68AA6EE268A764BA7
:1055B000764A19781368764E764D002914BF5A2121
:1055C0000721C3EB03135B1848BF0F331B1107EE12
:1055D000903A18F0010F0CBFF8EEE77AB8EEE77AD0
:1055E00013604FF4976303FB08A314BF77EE287A88
:1055F00078EEE77A5D4A03F5946003F2A441C0EDCA
:10560000007A81ED008AD2E9000103F5956425F066
:10561000C1F9336806992A682060CB1A934280F05A
:1056200006835D4B1B78002B40F0868246A7D7E9A6
:1056300000675A4D47EC186B4FF4976404FB08A4BD
:1056400004F5966904F2B443D9F80000059324F0F8
:1056500051FE3FA3D3E9002324F0A4FE53EC182B02
:1056600024F0EAFC25F096F9059A0346C9F80030C3
:10567000106824F03FFE36A3D3E9002324F092FE05
:1056800032463B4624F0D8FC25F084F9059A94F87C
:1056900094341060B3B1D4F89C240698D4F89814CC
:1056A000821A8A42C0F0F5840133DBB2022B84F8FF
:1056B000943440F2138704F2AC42002100231160BD
:1056C00084F89434364C374A23680699166836486D
:1056D000CB1A01368342166002D9002940F0948625
:1056E000B8F1000F40F09181304B93F90030002B5E
:1056F000C0F28B812E4A2F4C136821682E4803EB91
:1057000043030B4401689B088B4213601E4B40F21D
:1057100078811B78002B01F0B8811B4A012313709C
:1057200071E100BFAFF300800AD7A3703D0AEF3FDD
:10573000B81E85EB51B89E3F182D4454FB21F93F0C
:10574000CDCCCCCCCCCCEC3F9A9999999999D93FB6
:10575000333333333333E33FF01000204200002073
:10576000E80E00209F860100380000203000002055
:10577000E0100020D810002004000020DC100020E1
:10578000980E00209C0E0020B0090020140000207C
:10579000FC100020001100204C000020F811002017
:1057A000E40E0020A40E00203F4B4C000800002017
:1057B000AC090020A80900200C00002021F048FDC1
:1057C000049B9BF800201E68CB4904FB02A54FF404
:1057D0007A4303FB06F3D5F84C5481FB0361DB17D6
:1057E000401BC3EB21339842FFF428ACC349C448A3
:1057F00020F058F89BF80080C24904FB08A4002060
:1058000094F8343404331B01CA586FF34102CA5070
:10581000CA5842F00202CA5084F83504FFF7B7BBF9
:10582000039E8AE4012122F01FFA95F9000001216C
:1058300022F068FA95F90000414622F015FA444634
:1058400003E00134B4F57A7F05D095F9000022F029
:1058500087FA0028F5D1AC4A9BF8008013681C44F5
:105860001460FFF7A1BB03EB04145444079BB4F886
:10587000F021A6496FF38A225B00A4F8F0219BB2C5
:105880000022A4F8F231C4F8F411C4F8FC214FF45A
:10589000976303FB08A3012283F85324FFF76EBB31
:1058A0009B4D9C4C2B682278C31A002A00F05D8324
:1058B000994E32689A4240F33E8607EE903AF8EEEF
:1058C000E76A07EE902AB8EEE77AB0EE006AC6EE15
:1058D000877A92489249934B934AF0EE086AE7EE32
:1058E000C66AD1ED005A92ED008A93ED006A8F4BA3
:1058F0000493B0EE665A67EEA76AD0ED007A66EEC2
:10590000856A75EEE75A36EE486AE5EEA67AA6EEA7
:10591000268AF0EE678A4AE60C99B1F8561420F808
:10592000021C07460133B342A2EB090200F1020058
:10593000FFF603AD089A9A42C0F2C682139ACDF8D8
:1059400030801A441146129A0A4494460E9A4FF433
:10595000976001FB0921BA1C00FB08A7DDF8208035
:1059600046E0BEEB000000F12C86059E864240F327
:1059700028860B9D1D442C1900F12386A64240F376
:1059800020860D9DA54201F3CB80854201F35F8106
:10599000641B401B05FB0400149C255C159C2056D1
:1059A0000028C1F21F81B7F88A44B7F88C641296B8
:1059B0002544B7F886440E94129CB7F88464C5F366
:1059C00009056C400E9D06FB04F400FB05F0C011B8
:1059D000A41206FB0044D7F8800430F8140022F823
:1059E000020C01339845494402F10202C0F20D86CF
:1059F00008781CF8014BFF28B3D10A9822F8020C52
:105A0000EFE783F800800023236021F01BFC9BF864
:105A10000080DFED477A4FF4976207EE100A02FB31
:105A200008A2B8EE478AB2F8723428EE278A002B13
:105A300044D0B2F86E04184480B24FF4976404FB6B
:105A400008A4B4F88E34A4F86E04EBB1B4F88A2438
:105A50001344A4F88A34FFF706BB04EB441403EBA9
:105A600004135344079AB3F8F01128486FF38A21BE
:105A70005200A3F8F01192B20021A3F8F221C3F86A
:105A8000F401C3F8FC1102E7B4F8883407EE903A49
:105A900004F58F6393ED007AF8EE677AE7EE087A03
:105AA00017EE900A24F026FC224B002224F0C4FAC0
:105AB00024F028FFA4F88A04FFF7D5BAB2F86C34B2
:105AC00007EE903A02F25C4292ED007AF8EE677AC5
:105AD000E7EE087A17EE900A24F00CFC154B002232
:105AE00024F0AAFA24F00EFF80B2A6E70A9920F863
:105AF000021C074616E700BF89B5F81430D702002C
:105B0000B820002000A00041A8090020A20E00201B
:105B10007C0E0020740E0020780E00208C0E0020D9
:105B2000800E0020840E0020900E00200400002033
:105B300065CF8B370000E03F934D4FF49764D5ED70
:105B4000007A04FB08A303F5946393ED007AF8EE62
:105B5000E77A77EEC77AFDEEE77A17EE900A08F05B
:105B600027FC9BF80030D5ED007A049D04FB03A3CD
:105B700003F2A44393ED007A2A68F8EEE77AFDEE8B
:105B8000C06A77EEC77A16EE904AFDEEE77A02EB2E
:105B9000D27217EE900A04EB620408F009FCFDEEE5
:105BA000C07A2A68794B9BF8008093ED007A784B95
:105BB000784DD3ED006A17EE900A02EBD27100EB3C
:105BC000610107EE901AB8EEC77AF8EEE77A18F09E
:105BD000010FE7EE267A1CBF02F1FF32141BFDEE27
:105BE000E77A2A5D17EE903A9A42C0F20A846A492F
:105BF000095D994200F376855B1A521A07EE903AD6
:105C000007EE102AF8EEE77AB8EEC77A87EE878AB1
:105C1000624B1B78002B00F0DA8457A7D7E90067A6
:105C20009FED577BB0EE478AF0EE678A04E50F469A
:105C300048F6A0405A49376021F01CFA9AF894348B
:105C4000044633B90123CAF89C74CAF898048AF848
:105C50009434544821F002FA04EB440404449BF8C1
:105C600000802C60DDE4484B4F4A1E684F4B14689F
:105C70001B684F4A1793039B12681692A3EB090304
:105C8000E21803FB09431393731E1993C9F1000330
:105C9000484849491593099B008809681496994515
:105CA0000D900E91129240F39A8009F1FF311C463B
:105CB000C91A089B139A0C955E1C481C1044A7EB4C
:105CC0004403129A05904E4503F10203A8BF4E46C5
:105CD00001FB09211893BA1C23460A9605980C78F3
:105CE00010F8017D0590FF2C00F0F7801EEB0404F6
:105CF00064D40E9EB44261DA0B9D05EB030CBCEB41
:105D000007075BD4B74259DA149DAF42284680F2A8
:105D10000484AC4280F23F86199DEF1B2C1B00FBD4
:105D200007441698075D1798045707F50070054655
:105D3000002CC0F2B9840C98B0F88AC4B0F88C7406
:105D40000646AC44B0F88404B6F88654CCF3090C8B
:105D500087EA0C0700FB07F704FB05F4E411BF1208
:105D600000FB0477D6F88044189834F8174022F8DE
:105D7000024C00EB430727E09A99991985EBD13F34
:105D8000676666663D0AD73FDC10002024000020CD
:105D900048000020F811002004110020B009002064
:105DA0004019010000127A00B4090020E810002018
:105DB000E4100020A00E0020D81000200C98B0F8AD
:105DC000564422F8024C17460A9801338342A1EB4D
:105DD000090102F1020281DB089A9A4274DB159AEA
:105DE000CDF814801A441146139ADDF838C00A44DD
:105DF0004FF497651446129A05FB08A5DDF820803C
:105E000001FB0921BA1C087814F8016BFF2869D03E
:105E100010EB0E004CD460454ADA0B9F1F44BE19AC
:105E200046D46645374643DA149E0A96B7420C9725
:105E300080F26583B0420A9680F2EA85199F0E9738
:105E40003E460C9FF61B0C960E9E0A9F301A0C9E27
:105E500007FB0600169E179F365C385606F500773E
:105E60000028C0F20984B5F88A640C96B5F88C64F1
:105E70000E96B5F884640A960C9E3744B5F886648D
:105E80000C960E9EC7F309077E400A9F07FB06F695
:105E90000A960C9E00FB06F00A9EC011B61207FB84
:105EA0000066D5F8800430F8160022F8020C03E0F2
:105EB000B5F8560422F8020C01339845494402F122
:105EC0000202A0DADDF81480079B089A013B934296
:105ED0000CDC109A0023D360D9E40D9C22F8024C0C
:105EE000174671E70D9822F8020CE5E74FF4976228
:105EF0000999109D02FB08A2002992F85124D4BFF1
:105F000001210221212000FB02100C46119902EB15
:105F100042121F30144401EB00104FF4976204F159
:105F20001F0102FB08F25044E86002EB01110898DF
:105F300002EB04121B1A3AF80100634C0AEB01054C
:105F40005B0052449BB26FF38A2000262AF80100BE
:105F50006B806C60C2F8FC6199E404F5F8740AEB9C
:105F6000040310931C46FFF77CB9DFF88C91574867
:105F7000D9F800205649D0ED008A91ED008A9A4266
:105F800080F2B982534B544F1B6806993A68CB1A7A
:105F90009342524B524A1868049240F2878407EEAB
:105FA000900AF8EEE77A4F4EDFF8508117EE900A2C
:105FB00024F0A0F90B4604990968059107EE901AA0
:105FC000F8EEE77A024617EE900A43EC192B24F01C
:105FD00091F93BA3D3E9002324F0E4F902460B46F0
:105FE00051EC190B24F026F800223F4B24F0DAF98B
:105FF00024F0D0FC09EE100AF1EE497AFDEEE77AC2
:1060000017EE900AFDEEC97A17EE901A21F032F8D9
:1060100007EE900AF8EEE76A344BC6ED006A66EECA
:10602000E66A0593E9EE096AF1EEE67AB1EE677A7F
:10603000BDEEC77AFDEEE77A17EE100A17EE901A5A
:1060400021F018F807EE900AF8EEE77A2849294877
:10605000C8ED007A21F00EF8039BC9F800003B6000
:10606000059BD8ED007AD3ED006A96ED007A069B89
:106070002B60F8EEE66A012337EE267A77EEA66A01
:1060800086ED007AC8ED006A23709BF80080FFF768
:106090008EBA07EE902A07EE101AF8EE677AB8EE7D
:1060A000477A022BC7EE876A04F2AC4404BFF7EECE
:1060B000007A77EEE66AC4ED006AFFF703BB00BF23
:1060C000182D4454FB21F93FA20E00208C0E002015
:1060D000900E0020EC0E0020EC100020D8100020C4
:1060E00004000020800E00200000E83FDC100020AB
:1060F0007088020038440100780E0020840E0020D1
:10610000E74FE84D3C88E84EE30740F13C8295EDCF
:10611000007AF6EE007A67EE277A17EE900A24F0FE
:10612000E9F880463068894624F0E4F8DF4B002225
:1061300024F038F902460B464046494623F07CFFDE
:1061400024F028FC08EE900ADFEDD97AB6EE008A3A
:1061500014F00303A8EEA78A00F0228308EE903A19
:10616000FBEECF8A18EE900A24F0C4F802460B46E4
:106170000020D04923F05EFF80467068894624F0F5
:10618000B9F802460B464046494624F00BF9D5EDD6
:10619000017A68EEA77A804617EE900A894624F0C5
:1061A000A9F802460B464046494623F045FF24F035
:1061B000F1FB08EE900ADFEDC07A14F00703A8EEB9
:1061C000A78A00F0CF8208EE903AFBEEEE8A18EE36
:1061D000900A24F08FF802460B460020B54923F0C0
:1061E00029FF8046B068894624F084F802460B46B1
:1061F0004046494624F0D6F8D5ED027A68EEA77AF3
:10620000804617EE900A894624F074F802460B4641
:106210004046494623F010FF24F0BCFB08EE900AEC
:10622000DFEDA67A14F00F03A8EEA78A00F07C82B7
:1062300008EE903AFBEECE8A18EE900A24F05AF857
:1062400002460B4600209B4923F0F4FE8046F0688E
:10625000894624F04FF802460B464046494624F052
:10626000A1F8D5ED037A68EEA77A804617EE900A7A
:10627000894624F03FF802460B464046494623F043
:10628000DBFE24F087FB08EE900ADFED8D7A14F038
:106290001F03A8EEA78A00F0298208EE903AFBEED1
:1062A000ED8A18EE900A24F025F802460B460020ED
:1062B000804923F0BFFE80463069894624F01AF8F1
:1062C00002460B464046494624F06CF8D5ED047A68
:1062D00068EEA77A804617EE900A894624F00AF8FD
:1062E00002460B464046494623F0A6FE24F052FBE8
:1062F00008EE900AF4EE007A14F03F03A8EEA78AA5
:1063000000F0B68208EE903A706923F0F3FFFBEEDE
:10631000CD8A804618EE900A894623F0EBFF0246AC
:106320000B460020634923F085FE02460B4640469B
:10633000494624F037F8D5ED057A68EEA77A80460D
:1063400017EE900A894623F0D5FF02460B464046D9
:10635000494623F071FE24F01DFB08EE900AF5EE8D
:10636000007A14F07F03A8EEA78A00F0378208EEC7
:10637000903AB06923F0BEFFFBEEEC8A804618EE3F
:10638000900A894623F0B6FF02460B460020494991
:1063900023F050FE02460B464046494624F002F8E0
:1063A000D5ED067A68EEA77A804617EE900A894600
:1063B00023F0A0FF02460B464046494623F03CFE30
:1063C00024F0E8FA08EE900AF6EE007A3D4B3E4AD9
:1063D0003E4D92ED007AA8EEA78A0134A4B2D3ED27
:1063E000007AE7EE087A17EE900A23F083FF7F2CFD
:1063F00088BF0023C5E9000194BF3C803B80FFF7C4
:106400008BB8B7EE008A03E4314B32480A46A3FB4F
:1064100002234FF47A719B090A2201FB06F1B1FBBA
:10642000F3F11FF02BFC142021F002FA07EE900A82
:10643000F8EE677A17EE900A23F05CFF14A3D3E915
:10644000002323F0AFFF06460F46224822491FF0E3
:106450005BF93946304624F09DFA23F04BFF06469F
:106460000F4647EC106B02211A481FF07FFB0AA36E
:10647000D3E900233046394624F006FA002840F0DC
:10648000E082069B9BF800802360FFF729B900BFDC
:106490004241295AB917783FE17A14AE47E10A40E0
:1064A000A80E0020AC0E0020C80E00200000E03F27
:1064B0000000003C0000F03F0000803C0000003D78
:1064C0000000803D20000020280000203000002037
:1064D000D34D6210B820002004D70200490004F216
:1064E000AC43C4F898144FF07E520699C4F89C143B
:1064F0001A60FFF7E7B8CC4B0493FFF758B8B042E7
:106500003746C0F25A820C9EC01BF61B07FB0600E2
:10651000169E375C179E3056A2E4AC42C0F26582EC
:10652000641B7F1B05FB07471698C05D054617983F
:10653000C457FFF7FDBBDFF83483BC49D8F80030FF
:10654000039ABB4F2270994228BF194648F6B800FB
:1065500020F090FD3B683060002B00F00B83B54BC2
:10656000B54A93ED008AB54BD2ED008AB44A06993C
:1065700083ED008AAC4B9BF800802960C2ED008A55
:106580000493FFF714B8D5ED008A4FF47A70C6ED86
:10659000008A20F063FD07EE900AF8EEE77A17EE26
:1065A000900A23F0A7FE9CA3D3E9002323F0FAFE70
:1065B000A44B002223F03EFD24F0ECF93C88286037
:1065C000C2E5B7F8560422F8020CFFF70ABA18EE33
:1065D000100A23F08FFE92A3D3E9002323F0E2FEFA
:1065E000F7EE007A77EEC87A064617EE900A0F4665
:1065F00023F080FE8AA3D3E9002323F0D3FE47ECE7
:10660000186B06460F46FFF717B8DDF830805BE4DD
:106610008D4808F073F9B0F5806F80F029828B4BBC
:106620001988814240F2AF82894A12880B465B1A70
:10663000521A00EE102A07EE903AB8EEC00AF8EEB1
:10664000E77A844B87EE800AD3ED000A21F0C2FC82
:10665000814A824B92ED007AD3ED007A0699804B05
:10666000804A2960E7EE007A0021117017EE907AD7
:10667000C3ED007AFEF736BF10F1800F3FF418AC7F
:106680000F9E00FB06F00028BCBF00F5FF407F30E6
:10669000B5F86A64C0134042864200F32382B5F81D
:1066A000540422F8020C07E414F1800F00F0F38187
:1066B0000F9804FB00F7002FB8BF07F5FF470C98B1
:1066C000B8BF7F37B0F86AC4FF137F42BC4500F300
:1066D000EC81B0F85444189822F8024C00EB4307C0
:1066E000FFF772BB9FED608AFFF792BAD5ED048A7F
:1066F0004FF47A70C6ED048A20F0B0FC07EE900AE1
:10670000F8EEE77A17EE900A23F0F4FD42A3D3E9FE
:10671000002323F047FE4B4B002223F08BFC24F098
:1067200039F93C882861E5E5D5ED038A4FF47A70A4
:10673000C6ED038A20F092FC07EE900AF8EEE77AA5
:1067400017EE900A23F0D6FD33A3D3E9002323F0FC
:1067500029FE3C4B002223F06DFC24F01BF93C8801
:10676000E86092E5D5ED028A4FF47A70C6ED028AB0
:1067700020F074FC07EE900AF8EEE77A17EE900A24
:1067800023F0B8FD24A3D3E9002323F00BFE2D4B07
:10679000002223F04FFC24F0FDF83C88A8603FE580
:1067A000D5ED018A4FF47A70C6ED018A20F056FCCF
:1067B00007EE900AF8EEE77A17EE900A23F09AFDBA
:1067C00015A3D3E9002323F0EDFD1E4B002223F097
:1067D00031FC24F0DFF83C886860ECE4D5ED068AF3
:1067E0004FF47A70C6ED068A20F038FC07EE900A66
:1067F000F8EEE77A17EE900A23F07CFD06A3D3E9C2
:10680000002323F0CFFD0F4B002223F013FC24F0D4
:10681000C1F83C88A861D7E5680601A48066503FAE
:106820009A9999999999D93F0400002040420F0004
:10683000EC100020840E0020800E0020900E00201E
:106840008C0E00200000E03FA0070020F20E002088
:10685000400000203C0000202800002020000020F4
:1068600038000020F00E002000000000180000207A
:10687000D5ED058A4FF47A70C6ED058A20F0EEFB5F
:1068800007EE900AF8EEE77A17EE900A23F032FD51
:10689000D1A3D3E9002323F085FDC54B002223F0CB
:1068A000C9FB24F077F83C88686158E507EE900A48
:1068B000F8EEE77ABF4B059317EE900A23F01AFD26
:1068C000049ADFF81C831268079207EE902AF8EE0C
:1068D000E77A064617EE900A0F4623F00BFDAEA3AB
:1068E000D3E9002323F05EFD02460B4630463946CD
:1068F00023F0A0FB24F04EF823F0FCFCA8A3D3E97E
:10690000002323F04FFD24F045F809EE100AF1EEC4
:10691000497AFDEEE77AA84E17EE900AFDEEC97AA5
:1069200017EE901A20F0A6FB07EE900AB8EEE77A71
:10693000059B27EE476A1B680793A9EE096A07EED5
:10694000903AF1EEC65AF8EEE77A78EEE76A38EE5A
:10695000679A36EE877AF1EE656AFDEEE66A86EDB5
:10696000007A16EE900AFDEEE56A16EE901A20F017
:1069700081FB07EE900AF8EEE77A46F2A81177EE6F
:10698000897A41F65830C8ED007A20F073FBC9F8D7
:106990000000FFF765BB641B199DEF1B169D844625
:1069A00000FB045517980CFB070CEF5D1CF9044025
:1069B00007F580700546FFF7BBB9199E301A0C9E8B
:1069C0000E90F01B0A900E9E169807FB06000C9086
:1069D0000A9E3846179F00FB06770C98865D0E9836
:1069E000385606F54077FFF73BBA1998169D041BF9
:1069F000149800FB04553F1A844617980CFB070CAB
:106A0000EF5D1CF9044007F540700546FFF790B9AB
:106A1000801B37460E900C9E1998801B0A900E9E84
:106A2000169807FB06000C900A9E3846179F00FB3D
:106A300006770C98865D0E98385606F58077FFF736
:106A40000FBA5E495E481EF05FFE022147EC106BF4
:106A50005B481FF08BF854A3D3E900233046394636
:106A600023F012FF00283FF40CADFEF779F908E59A
:106A7000544A13780133DBB2182B1370524A70D981
:106A8000FF2317682370FEF72DBD50494C481EF0B8
:106A9000B9FEFEF742BE0C98B0F85644189822F89A
:106AA000024C00EB4307FFF78FB9B0F86EC40646FF
:106AB0002C46B0F870046444C4F30904B6F868C402
:106AC00044400CFB04F407FB0CF707EBA427D6F8B3
:106AD0006444189834F8174022F8024C00EB43073E
:106AE000FFF772B9B5F86E640A96B5F870640C9643
:106AF0000A9E3E44B5F868740A970C9FC6F30906CF
:106B00007E400A9F00FB07F007FB06F600EBA62677
:106B1000D5F8640430F8160022F8020CFFF7CCB95F
:106B2000854240F3BA80169E341B301A05FB0400E0
:106B3000149C159D245C285604F50075FEF730BFA3
:106B40008F4240F3BC80169F3C1B791A05FB041151
:106B5000149C159D645C695604F500741894FEF746
:106B600039BC069B1768A3F58833A3F5B8732B606F
:106B7000FEF7B8BC164B069AD8F800101A6020F041
:106B800079FA3860EBE4134B1A88904228BF10461C
:106B900083B24CE5AFF30080182D4454FB21F93F3C
:106BA000EC51B81E85EBB13F52B81E85EB510A403F
:106BB0000000E03FDC100020800E002014D702000F
:106BC000B8200020F00E00203800002028D7020056
:106BD000EC0E002040000020680601A48066503FB3
:106BE000840E002010F1800F3FF4EBAC0F9C00FBF3
:106BF00004F00028BCBF00F5FF407F30B7F86A44BE
:106C0000C013404284426CDCB7F8540422F8020CF2
:106C1000FEF7E7BE11F1800F00F099800F9C01FB99
:106C200004F4002CB8BF04F5FF440C99B8BF7F34BE
:106C3000B1F86A74E4136442A7426ADCB1F85414F0
:106C400020F8021C179901EB4307FEF76BBE169D57
:106C5000149E281A0D9D00FB0566641B0E962E4699
:106C6000159D04FB06550E9E2856345D04F54075AF
:106C7000FEF796BE169D149F691A0D9D01FB0577C0
:106C80001897159F641B04FB0577189D79562C5D9A
:106C900004F540741894FEF79DBB169E341B149E99
:106CA000401B00FB05660E962E46159D04FB0655FF
:106CB0000E9E2856345D04F58075FEF771BEC91B23
:106CC000169F3C1B149F01FB05771897159F04FB2B
:106CD0000577189D79562C5D04F580741894FEF79D
:106CE00079BBB7F86E44B7F870642C44C4F3090458
:106CF000B7F86854744000FB05F005FB04F400EBA2
:106D0000A424D7F8640430F8140022F8020CFEF72B
:106D100068BEB1F86E74B1F87054189939440C9F7C
:106D2000C1F30901B7F86874694007FB01F104FB7E
:106D300007F404EBA1240C99D1F8641431F8141071
:106D400020F8021C179901EB4307FEF7EBBD0C99E5
:106D5000B1F8561420F8021C179901EB4307FEF70F
:106D6000E1BD00BFF8B5134C134D204607F05EFDA2
:106D70000027124B124A1349236001262046C4F80B
:106D8000007284F8686021F073F8394628464FF4A1
:106D9000976224F0BBF90C4A0C4B6A6005F2344050
:106DA000AB600EF0C1FD0A490A4832460223FDF7E6
:106DB000FBFBF8BDA0070020B809002078D702002F
:106DC00000000020D5440000581F00202C2D2EFF6D
:106DD00080F0FA02F010002000207047037C13F0CE
:106DE000080306D0C36A406A181A48BF6FF0004013
:106DF00070471846704700BF10301CF0D1BA00BF72
:106E000000B583B001220DF1070110301CF0F6F936
:106E100001280CBF9DF807004FF0FF3003B05DF86C
:106E200004FB00BF10301CF0BFBB00BF10301CF0D3
:106E30001FBC00BF00B583B00B4601220DF1070156
:106E400010308DF807301CF013FC03B05DF804FB24
:106E50000846114624F024BF084624F0C5B800BFF8
:106E6000084624F0B9B800BF2DE9F047037ADA07E5
:106E700007460D464DD413F0600F48D03E884FF6BC
:106E8000FF78464540D0DFF8F4A00DE029462046C3
:106E9000FFF7EAFF237A23F07F032372AB8E63812F
:106EA0004645A5F834902FD0EB6AB20903EBC20334
:106EB00006F03F025C6804EB0214B14694F9083016
:106EC0006689002BE2DAAB68E2682868002BDDD027
:106ED00003F108018A423AD019461B6803F1080CF5
:106EE000002BD3D06245F7D19A88013A92B29A80AA
:106EF000002ACBD11A680A600268526852452FD125
:106F0000184624F071F8C1E74FF0FF333B60BDE84D
:106F1000F0878968026828680029ACD08A4222D0AC
:106F20000C4609680029A6D08A42F9D19388013B12
:106F30009BB293804BB90B68236003680F4A5B6870
:106F4000934219D1084624F04FF83B7A93E79A8888
:106F5000013A92B29A80002A98D11A68AA60CBE7C7
:106F60001946904792E79388013B9BB29380002B90
:106F7000EBD10B68AB60E0E79847E6E7596E00009D
:106F80002DE9F04F047885B02B2C0646019100F0D6
:106F9000DE802D2C6ED14478A4F13000C0B20121E6
:106FA000092800910E446CD8DFF81C93C0B2002170
:106FB000002400254FF0993816F801BF2418ABF1D2
:106FC0003007FFB241EB05054FEA850E092F6FEA46
:106FD00007024FF0FF334FEA840C4EEA947EF8B27A
:106FE0004FF0000100F21181A94508BFA0450BD365
:106FF0001CEB040C4EEB050E1CEB0C044EEB0E05CB
:10700000AB4208BFA242D7D24FF0000A002320466D
:1070100029460A2223F01CFEA946A0461FFA8AF33D
:10702000B9F5200F03F1010A08BFB8F1000F0446BB
:107030000D460FFA8AFAE9D2092F0BD802339B1BAF
:1070400006EB030A16F801BFABF13002092A0FFA6A
:107050008AFAF5D9BBF12E0F19D00BF0DF03452BBF
:1070600045D0BBF1000F7DD000230093184605B03A
:10707000BDE8F08FA4F13000C0B2002109280091D2
:1070800092D92E2CF0D1002400254FF0000A96F85A
:1070900001B0ABF13000C0B2092806F10106DCD81E
:1070A000844B4FF099329D424FEA850108BF9442CC
:1070B0004FEA840741EA94710ED23F1945EB010172
:1070C00017EB070841EB01090AF1FF3A18EB00043E
:1070D0000FFA8AFA49F1000516F801BFABF130004A
:1070E000C0B20928DFD90BF0DF03452BB9D196F8E0
:1070F00001B0BBF12D0F00F0B080BBF12B0F64D0BD
:10710000ABF13003DAB2092A06F10106A9D803EB84
:107110000A02B2F59A7F00F3B680002706E002EB80
:10712000400303EB0A02B2F59A7F5CDC16F801BF5C
:10713000ABF13002D1B2092903EB8300EFD9002F64
:1071400040F0A6809A44BBF1000F8DD10AE044784C
:10715000A4F13000C0B200210928009106F1010617
:107160008FD821E72046294623F0E6F8BAF1000F30
:1071700040F38480504D002404E05FEA6A0A04F181
:1071800001040ED01AF0010FF7D0E3B205EBC303F0
:10719000D3E9002323F006F95FEA6A0A04F1010447
:1071A000F0D1009B13B101F100431946019A137A03
:1071B00023F07F0343F00C0313720123C2E90001A3
:1071C0001846009305B0BDE8F08F96F802B0ABF119
:1071D0003003DAB2092A06F1020698D9BBF1000F92
:1071E0007FF442AFBEE7002F4DD0019A137A23F00F
:1071F0007F0343F00C0300204FF000411372012382
:10720000C2E900010093184631E7BBF1000F48D1F5
:10721000009B9BB1B5F1004F08BF012CBFF4F4AE49
:10722000019A0098137A644223F07F0365EB4505C9
:1072300043F00A03C2E90045137218E7019A137A72
:1072400023F07F0343F00803137201231846C2E9B9
:107250000045009305B0BDE8F08F96F802B0ABF1A1
:107260003003DAB2092A06F102063FF6FAAE0AEB5B
:107270000302B2F59A7FB8DC012757E791D00F4D92
:10728000CAF1000A77E7009B002043B10C498DE763
:10729000AAEB030ABBF1000F7FF4E6AE62E70949EF
:1072A00084E7B5F5801F08BF002CBFF4ADAE4FF0EA
:1072B000000ACFE69999010080D9020038D902006E
:1072C0000000F0FF0000F07F999999192DE9F04F27
:1072D0008FB082460AA80D46164699461AF0E8FA7B
:1072E00020F06CF88C4809F073FA002800F0F08068
:1072F0008A4F04463A684946284623F007FF3A6811
:107300004946304623F002FF20F058F809AB08AA9E
:10731000514620461AF006FE60B9089A0998D31D16
:1073200048BF02F10E03DB1000FB03F0189B9842EC
:10733000C0F0D08020F042F820460AAA51461AF048
:10734000A7FD044630B10AA81AF0B8FA20460FB0DB
:10735000BDE8F08F9DF83430012B08BF039040F05A
:10736000D8800C9B002B00F0D1805A881B889A4251
:1073700094BF0023012307930AA83C681AF0DCFAA3
:10738000211A0AA801EBD1740191D7F800B01AF0C4
:10739000E1FAABEB000B0BEBDB7252100AA8009288
:1073A0001AF0CAFA641000EB040A0AA81AF0D2FA1A
:1073B0000199009AD7F800C08B1C1044CCBF23461B
:1073C00000230AF1FF3A1BF1020F00F1FF39CCBF95
:1073D00010460020D445D8BF0CF1FF3ACC45D8BFA9
:1073E0000CF1FF390129D4BF64420024BBF1010F25
:1073F000D4BF5242002206900AA8029201931AF0CA
:10740000B7FA02460AA8536A00931AF095FA019B4C
:10741000C21D48BF00F10E0253454FEAE20B50DC9B
:10742000029AC3F101018A441B1B0BFB02F2049375
:107430000192F3180AEB0402DDF818A00695079DE7
:10744000029205931FF0BAFF802304F00700002C7E
:1074500043FA00F0019B2246B8BFE21D03EBE202B3
:10746000002D009BC0B214BF06460026CA451A4430
:1074700023DC09F1010E51464FF0FF0C1378034055
:10748000B34204D1BCF1FF0F884608BF8C460131DE
:1074900071455A44F2D1BCF1FF0F0ED03B68069AF9
:1074A0000499013BA3EB0C0C059B03F804C03B685B
:1074B0000A44013BA3EB08031355029B01349C4291
:1074C000C0D1039B1C46002B3FF43DAF002419E0C4
:1074D000012438E7181A23F07FFD039000283FF4B9
:1074E00029AF002303701FF069FF20460AAA514606
:1074F0001AF0CEFC044628B99DF83430012B3FF435
:1075000030AF0224039823F06FFD1CE7012307939B
:1075100032E7022417E700BFA00700200400002084
:107520002DE9F04786B0814602A80E4615461F4653
:107530001AF0BEF91FF042FF324809F049F968B36A
:1075400001AB6A46494604461AF0ECFC804648B94D
:10755000DDE9002303FB02F30E9AB2EB430F4FEA7F
:1075600043001DD81FF02AFF204602AA49461AF000
:107570008FFC044658B9A2469DF81430032B22D044
:107580000224BAF1000F02D0504623F02DFD02A8CC
:107590001AF094F9204606B0BDE8F0870124F6E71A
:1075A000101A23F019FD82460028DBD080F80080F5
:1075B0001FF004FF204602AA49461AF069FC04465F
:1075C0000028E1D1D8E7104910481EF01BF902A8A5
:1075D0001AF0CEF904460AF05DFE02A81AF0ACF9E2
:1075E000288002A81AF0B6F982B23A802B88616A24
:1075F000044802FB03F2520009F010F90024306045
:10760000BFE700BFA007002084D70200B8200020F9
:107610002DE9F04F037A03F07F03043B89B0082B78
:1076200006D8DFE803F00A0A5105590562056B0028
:107630009FEDC50A09B0BDE8F08F026800218DF802
:107640001810137A2B2B00F0FE802D2B00F0F58004
:1076500002F108060191A3F13002D2B2092A71D9D0
:107660002E2B69D1002400254FF0000B96F801A0C5
:10767000AAF13000C0B2092806F1010600F2BA8072
:10768000B24B4FF099329D424FEA850108BF9442B8
:107690004FEA840741EA94710ED23F1945EB01018C
:1076A00017EB070841EB01090BF1FF3B18EB000456
:1076B0000FFA8BFB49F1000516F801AFAAF1300073
:1076C000C0B20928DFD995E0037800EE103AB8EE91
:1076D000400A09B0BDE8F08FD0E9000123F072FA4A
:1076E00000EE100A09B0BDE8F08FD0E9000123F0E8
:1076F00071FA00EE100A09B0BDE8F08FD0E9000180
:1077000023F048F900EE100A09B0BDE8F08FBAF195
:10771000000F40F00F81019B002B00F0D880B5F1E5
:10772000004F08BF012C3BD2644265EB4505CDE913
:1077300004450A238DF8183004A8FFF769FF09B043
:10774000BDE8F08F8249D2B20023002400254FF01B
:10775000993016F801AFA418AAF1300743EB0505DC
:10776000FFB24FEA850E092F4FEA840C4EEA947E51
:107770006FEA07084FF0FF39FAB24FF00003C6D89E
:10778000A94208BFA0420BD31CEB040C4EEB050E24
:107790001CEB0C044EEB0E05A94508BFA045D8D242
:1077A0004FF0000B0023204629460A2223F050FA0E
:1077B000A946A0461FFA8BF3B9F5200F03F1010B80
:1077C00008BFB8F1000F04460D460FFA8BFBE9D253
:1077D000092F0BD802339B1B06EB030B16F801AFE6
:1077E000AAF13002092A0FFA8BFBF5D9BAF12E0F54
:1077F0003FF43CAF0AF0DF03452B29D00023BAF158
:10780000000F99D19B442046294622F095FDBBF1FB
:10781000000F74DD4F4D002404E05FEA6B0B04F1B0
:1078200001043FD01BF0010FF7D0E3B205EBC30317
:10783000D3E9002322F0B6FDEFE7537A02F10906FF
:107840000122019207E7537A019102F1090602E74A
:1078500096F801A0BAF12D0F3FD0BAF12B0F5DD0F1
:10786000AAF13003DAB2092A06F10106C6D803EB01
:107870000B02B2F59A7F47DC002706E002EB4003DB
:1078800003EB0B02B2F59A7F17DC16F801AFAAF1F1
:107890003002D1B2092903EB8300EFD9002FAED01B
:1078A0005B42ACE7019B13B101F1004319460C2385
:1078B000CDE904018DF818303EE72FB300204FF0DA
:1078C00000410C23CDE904018DF8183034E708237A
:1078D000CDE904458DF818302EE796F802A0AAF1FC
:1078E0003003DAB2092A06F1020688BF0023D7D88E
:1078F0000BEB0302B2F59A7FE0DC0127C5E7D1D09C
:10790000154DCBF1000B86E7019B002083B913498D
:107910000C23CDE904018DF818300DE796F802A08C
:10792000AAF13003DAB2092A06F102069FD965E707
:107930000B49EDE7B5F5801F08BF002CBFF430AF51
:107940004FF0000B52E700BF0000000099990100C2
:107950009999991980D9020038D902000000F07F66
:107960000000F0FF000000002DE9F04F017A01F067
:107970007F0104398BB008290DD8DFE801F02872A7
:10798000BB0C050CBF0C1000D0E90001002908BF9A
:10799000B0F1004F00D300200BB0BDE8F08FD0E96C
:1079A0000045AD4B00222046294622F081FF0028E9
:1079B000F2D0A7A3D3E900232046294622F06EFF88
:1079C0000028E9D02046294622F09CFFE4E706681B
:1079D00000228DF8202033782B2B00F006822D2BEF
:1079E00040F0BE810122737801921644A3F1300267
:1079F000D2B2092A40F238812E2B40F0A380002415
:107A000000254FF0000B96F801A0AAF13000C0B29B
:107A1000092806F1010600F28081904B4FF099325F
:107A20009D424FEA850108BF94424FEA840741EA2C
:107A300094710ED23F1945EB010117EB070841EB9A
:107A400001090BF1FF3B18EB00040FFA8BFB49F126
:107A5000000516F801AFAAF13000C0B20928DFD93D
:107A60005BE1026800218DF82010137A2B2B00F0C7
:107A7000B7812D2B00F0AE8102F108070191A3F12F
:107A80003002D2B2092A63D92E2B5BD14FF0000B02
:107A90000024002597F801A0AAF13000C0B20928FF
:107AA00007F1010700F2AC806C4B4FF09932BE46F3
:107AB0009D424FEA850108BF94424FEA840C41EA97
:107AC00094710ED21CEB040C45EB01011CEB0C066F
:107AD00041EB01070BF1FF3B34180FFA8BFB47F129
:107AE00000051EF801AFAAF13000C0B20928DFD9A5
:107AF000774685E000780BB0BDE8F08FD0E9001044
:107B000011F1004240F10003012B08BF002A28BFF9
:107B1000002108460BB0BDE8F08FBAF1000F40F02D
:107B20000382019B002B00F0A281B5F1004F08BF3A
:107B3000012C3BD2644265EB4505CDE906450A239D
:107B40008DF8203006A8FFF70FFF0BB0BDE8F08FCF
:107B50004349D2B20023002400254FF0993017F892
:107B600001AFA418AAF1300643EB0505F6B24FEABF
:107B70008508092E4FEA840E48EA94786FEA060BCE
:107B80004FF0FF3CF2B24FF00003C6D8A94208BF45
:107B9000A0420BD31EEB040E48EB05081EEB0E04AF
:107BA00048EB0805AC4508BFA345D8D24FF0000B01
:107BB0000023204629460A2223F04AF8A946A04677
:107BC0001FFA8BF3B9F5200F03F1010B08BFB8F1D1
:107BD000000F04460D460FFA8BFBE9D2092E0BD895
:107BE0000233DB1B07EB030B17F801AFAAF13002DE
:107BF000092A0FFA8BFBF5D9BAF12E0F3FF44AAFE1
:107C00000AF0DF03452B00F0F4800023BAF1000FE7
:107C100098D19B442046294622F08EFBBBF1000FF1
:107C200040F35C810F4D002405E05FEA6B0B04F12B
:107C3000010400F0C4801BF0010FF6D0E3B205EBA5
:107C4000C303D3E9002322F0ADFBEEE7AFF30080DE
:107C50000000C0FFFFFFDF410000E0C19999010073
:107C60009999991980D90200B849D2B20023002409
:107C700000254FF0993016F801AFA418AAF130078B
:107C800043EB0505FFB24FEA850E092F4FEA840C3E
:107C90004EEA947E6FEA07084FF0FF39FAB24FF0D0
:107CA000000300F2EA80A94208BFA0420BD31CEBFC
:107CB000040C4EEB050E1CEB0C044EEB0E05A94517
:107CC00008BFA045D7D24FF0000B0023204629461D
:107CD0000A2222F0BDFFA946A0461FFA8BF3B9F590
:107CE000200F03F1010B08BFB8F1000F04460D4649
:107CF0000FFA8BFBE9D2092F0BD802339B1B06EB43
:107D0000030B16F801AFAAF13002092A0FFA8BFB18
:107D1000F5D9BAF12E0F3FF476AE0AF0DF03452B0A
:107D200020D0BAF1000F7FF40DAF2046294622F093
:107D300003FBBBF1000F40F3D780854D002404E026
:107D40005FEA6B0B04F1010439D01BF0010FF7D08F
:107D5000E3B205EBC303D3E9002322F023FBEFE7F3
:107D6000019243E696F801A0BAF12D0F00F092803F
:107D7000BAF12B0F00F0CD80AAF13003DAB2092A54
:107D800006F10106CDD80BEB0302B2F59A7F5DDC5C
:107D9000002706E002EB400303EB0B02B2F59A7FEB
:107DA0005FDC16F801AFAAF13002D1B2092903EB6A
:107DB0008300EFD9002F40F09D809B44B1E7019BE9
:107DC00013B101F1004319460C23CDE906018DF8EA
:107DD0002030B7E6537A02F10907012201924EE6FC
:107DE000537A019102F1090749E67378019201364D
:107DF000FCE597F801A0BAF12D0F5DD0BAF12B0F79
:107E00007DD0AAF13003DAB2092A07F101073FF663
:107E1000FCAE03EB0B02B2F59A7F17DC002606E0FE
:107E200002EB400303EB0B02B2F59A7F0DDC17F86F
:107E300001AFAAF13002D1B2092903EB8300EFD9D7
:107E4000002E3FF4E3AE5B42E0E666B9019B002002
:107E5000002B52D13F490C23CDE906018DF820308B
:107E600070E6002FF2D000204FF00041F3E7082326
:107E7000CDE906458DF8203064E6BAF1000F5CD1FB
:107E8000019B002BF3D0B5F1004F08BF012CBFF4CC
:107E90001AAF4FE696F802A0AAF13003DAB2092A27
:107EA00006F1020688BF002324D80BEB0302B2F5CB
:107EB0009A7FD8DC012774E797F802A0AAF1300373
:107EC000DAB2092A07F1020788BF0023BBD803EB07
:107ED0000B02B2F59A7FC6DC0126A8E73FF46FAF2C
:107EE0001D4DCBF1000B9EE63FF469AF1A4DCBF16F
:107EF000000B23E7ABEB030B13E71849ABE797F84D
:107F000002A0AAF13003DAB2092A07F1020780D9E8
:107F10007BE696F802A0AAF13003DAB2092A06F14C
:107F200002067FF630AFFCE6B5F5801F08BF002CD7
:107F3000BFF43CAE4FF0000B5EE6B5F5801F08BF06
:107F4000002CBFF4C0AE4FF0000BE2E699999919EE
:107F500080D902000000F07F38D902000000F0FF55
:107F60002DE9F04F2DED068B97B00CAB83E80300A5
:107F700000284ED0037A03F07F010829834633D0CE
:107F80000A2914D01C074AD4042967D10468204662
:107F900023F0C3FE062800F0B080002220461146E0
:107FA00023F074FF17B0BDEC068BBDE8F08FD0E96D
:107FB000000110F1004441F10005012D08BF002C23
:107FC000F0D319074CD5DBE9000122F003FE22F0C3
:107FD00091F9CE4B002222F02FF822F093FC17B03B
:107FE000BDEC068BBDE8F08FD0E90001002908BF89
:107FF000B0F1004FD6D3180732D5DBE9000122F0EB
:10800000E1FDE4E7D1E90023002B08BFB2F1004F06
:108010005BD2104617B0BDEC068BBDE8F08F04397B
:10802000082915D801A353F821F000BF35810000BD
:10803000358100002581000051800000FB7F000099
:1080400051800000C77F0000518000001B810000AC
:10805000002017B0BDEC068BBDE8F08F052944D099
:10806000580603F04001D4D513F0600FDDF83490CA
:10807000BBF8000040F024814FF6FF73984200F0F7
:108080005283D9F82C604FEA901C00F03F0006EBB9
:10809000CC0304015A6812EB001100F03D830B7A07
:1080A00003F07F03082BADD00A2B0ED1D1E90030AD
:1080B00013F10043009340F100030193DDE9005602
:1080C000012E08BF002DC0F04A840B7A03F07F0315
:1080D000042B00F06383052B40F0258308680830EB
:1080E0000022114623F0D2FE5CE7046808342046E3
:1080F00023F013FE06287FF450AF85490222204664
:1081000023F014FE00287FF448AF002220461146D9
:1081100023F0BCFE40BA80B244E7D0E9000122F06F
:1081200039FC54E7007807EE900AF8EE677A17EE0C
:10813000900A4CE70268137A2B2B00F0FC822D2B5F
:1081400000F0F38202F1080700220092A3F130024E
:10815000D2B2092A5BD92E2B7FF47AAF00240025F6
:108160004FF0000A97F801B0ABF13000C0B2092817
:1081700007F1010724D8674B4FF09932BE469D4264
:108180004FEA850108BF94424FEA840C41EA94719A
:108190000ED21CEB040C45EB01011CEB0C0641EB71
:1081A00001070AF1FF3A34180FFA8AFA47F100057D
:1081B0001EF801BFABF13000C0B20928DFD9774605
:1081C0000BF0DF03452B00F0BC820023BBF1000F56
:1081D0007FF43EAF9A442046294622F0ADF8BAF12A
:1081E000000F40F352834C4D002405E05FEA6A0A19
:1081F00004F1010400F0D4821AF0010FF6D0E3B2CA
:1082000005EBC303D3E9002322F0CCF8EEE74349A2
:10821000D2B20023002400254FF0993017F801BF97
:10822000A418ABF1300643EB0505F6B24FEA850E14
:10823000092E4FEA840C4EEA947E6FEA06084FF04E
:10824000FF39F2B24FF0000300F2CC82A94208BF1E
:10825000A0420BD31CEB040C4EEB050E1CEB0C04E4
:108260004EEB0E05A94508BFA045D7D24FF0000A36
:108270000023204629460A2222F0EAFCA946A0460D
:108280001FFA8AF3B9F5200F03F1010A08BFB8F10C
:10829000000F04460D460FFA8AFAE9D2092E0BD8D0
:1082A0000233DB1B07EB030A17F801BFABF1300207
:1082B000092A0FFA8AFAF5D9BBF12E0F80D151E7BE
:1082C0004FF6FF77B84200F02E82D9F82C60830970
:1082D00006EBC30300F03F025B6813EB02134FEAA7
:1082E000901C104600F018825A8900259309BA4262
:1082F00006EBC30302F03F0405F1010510D05B68F3
:1083000013EB04130CD05A89F0E700BF0000E03FE4
:1083100094D702009999010080D90200999999197E
:10832000022D7FF6B4AE9FEDAEAB9FEDAF9B9FED00
:10833000B08B4FF0000ACDF80090544659B3BBF80B
:1083400000104FF6FF78414521D0009BDA6A8B0977
:1083500002EBC30301F03F005B68844613EB00109F
:108360004FEA911E13D045895CB32E46274603E0A1
:10837000012F5E8926D00127B309464502EBC303CE
:1083800006F03F0903D05B6813EB0913F0D14FF6F9
:10839000FF73994252D10FAB53F82400FF2846DCFB
:1083A000002805DA16AB03EB8403002243F81C2CEB
:1083B0000134032C00F0B6809BF8081001F0400156
:1083C000BCE703461E7A06F07F06082E00F0B9804F
:1083D0000A2E39D1D3E9006316F1004643F10003B8
:1083E00003930296DDE90267012F08BF002E34BF18
:1083F0000123002343B3002C00F0B18021464FF647
:10840000FF7604E001295D8900F0A8800121AB0915
:10841000B54202EBC30305F03F0003D05B6813EBEA
:108420000013EFD10FAA002342F82430C0E716ABA7
:1084300003EB8403FF2243F81C2CB9E7009BDA6AA4
:108440004FEA911E01F03F0C02EBCE035B6813EB89
:108450000C1317D05F89002C00F09F803B46264606
:108460004FF6FF7803E0012E6B897ED00126980934
:10847000434502EBC00003F03F0503D0436813EB14
:108480000515F0D14FF6FF73994284D0009BDA6A4C
:108490004FEA911E01F03F0C02EBCE0EDEF8041005
:1084A00011EB0C113FF477AF4D89002C00F04482A2
:1084B000294620464FF6FF7600E001208B09B142A5
:1084C00002EBC30301F03F073FF465AF5B6813EBBA
:1084D00007133FF460AF01285989EED11B7A03F0EE
:1084E0007F03043B012B3FF656AF20464FF6FF7645
:1084F00004E001285D8900F05B810120AB09B542F1
:1085000002EBC30305F03F0103D05B6813EB0113DB
:10851000EFD100200022114623F0B8FC0FAB43F846
:1085200024003BE7DDE90F133348119ADB0003F425
:10853000FC6300EA0120184340EAE20040BA80B23E
:1085400030E5D3E900674FF00009B9456FF0004806
:1085500008BFB0452CBF012300234BE71846FFF7A7
:1085600003FA0FAB43F8240018E72B7A1D0793D5C5
:1085700021464FF6FF7003E001295F8911D00121E8
:10858000BB09874202EBC30307F03F053FF44AAF44
:108590005B6813EB0513EFD144E7197A0E077FF5FB
:1085A0007BAF1A7A02F07F02043A082A3FF63AAF0C
:1085B00001A151F822F000BFFD850000FD850000FB
:1085C000F786000025840000DB860000258400007B
:1085D000BF86000025840000A3860000AFF3008062
:1085E000000000000000F0FF000000000000F07F2D
:1085F000000000000000008000F8FFFF1A68002162
:108600008DF85010137A2B2B00F0A4812D2B00F045
:108610009B8102F1080A0491A3F13000C0B209283D
:1086200040F243812E2B40F02181002500260027B7
:108630009AF80020A2F13003092B0CD86B1CA3EB95
:108640000A030AEB03011AF8012FA2F130000928EE
:1086500009B2F6D90D462E2A00F0CD8102F0DF03D3
:10866000452B00F07F810023002A40F0FF801D444D
:108670003046394621F060FE002D40F32C82C84F71
:10868000002604E06D1006F1010600F0A681EB075C
:10869000F8D5F3B207EBC303D3E9002321F082FE40
:1086A000F0E7D3E9000122F075F921F023FEBAA327
:1086B000D3E9002321F076FE22F024F92EE7D3E956
:1086C000000122F087FA21F015FEB3A3D3E90023BD
:1086D00021F068FE22F016F920E7D3E9000122F02C
:1086E00071FA21F007FEACA3D3E9002321F05AFE72
:1086F00022F008F912E7187807EE900AF8EE677A88
:1087000017EE900A21F0F6FDA3A3D3E9002321F090
:1087100049FE22F0F7F801E706EBCC06716811EB91
:1087200000117FF4D2AC0020DAE4537A02F1090799
:10873000012200920AE5537A02F109070022009211
:1087400004E597F801B0BBF12D0F64D0BBF12B0FFE
:1087500000F0A080ABF13003DAB2092A07F101077B
:108760003FF633AD0AEB0302B2F59A7F31DC002607
:1087700006E002EB400303EB0A02B2F59A7F25DC28
:1087800017F801BFABF13002D1B2092903EB830026
:10879000EFD9002E3FF41AAD5B4217E508689FE45D
:1087A000009B002B3FF4BBAC01F100431946B6E43B
:1087B00019460B7A03F07F03042B05D0052B7FF4B9
:1087C000A8AE08680830A5E60868A3E6002E7FF486
:1087D0003FAC009B002B14BF4FF000406FF00040F7
:1087E000FFF7E0BBBBF1000F40F07C81009B63B161
:1087F000B5F1004F08BF012CBFF438AD604265EB06
:10880000450122F0E7F9FFF7E2BB2046294622F0B6
:10881000D9F9FFF7DCBB97F802B0ABF13003DAB25D
:10882000092A07F1020788BF0023B5D80AEB030223
:10883000B2F59A7F3FF70CAC0126A1E7CDE9068996
:10884000F346BCF1000F40F01881049B002B00F0B0
:108850000E81B7F1004F08BF012E58D2764267EB68
:108860004707CDE912670A238DF8503012A8FEF7AA
:10887000CFFE10EE100A21F03DFD47A3D3E90023FF
:1088800021F090FD22F03EF848E689D0454DCAF12E
:10889000000AA9E497F802B0ABF13003DAB2092A72
:1088A00007F102077FF65EAF8FE4DDE90689C0B20B
:1088B000002100260027DE461AF801CF3618ACF159
:1088C000300541EB0707EDB2BA00092D4FEA8603E8
:1088D00042EA9672E8B24FF00001AFD8DFF8C8C0A4
:1088E0004FF0993BBC4508BFB3450DD39B1947EBEF
:1088F0000202DE1842EB02074FF0FF396FEA05086B
:10890000B94508BFB045D7D2CDE90689F346002561
:10891000304639460A22002322F09AF9B946B04679
:10892000B9F5200F05F1010508BFB8F1000F0646A3
:108930000F462DB2ECD27BE60B7A03F07F03043BAB
:10894000012B7FF636AF26E5537A02F1090A0122A0
:10895000049261E6537A049102F1090A5CE6105927
:10896000FFF720BB9AF801202D2A00F08E802B2AD9
:1089700000F0A680A2F13003D9B209290AF1010A58
:108980003FF671AEEA18B2F59A7F00F38F804FF090
:10899000000E11E0AFF300808716D9CEF7FF6F40CD
:1089A00080D9020038D902009999991901EB4C033A
:1089B0005A19B2F59A7F51DC1AF8012FA2F1300151
:1089C000C8B2092803EB830CF0D9BEF1000F3FF4C5
:1089D0004BAE9AF800205B4246E6049B2BB101F1B6
:1089E000004308900993DDE908010C23CDE9120149
:1089F0008DF850303AE79AF80120A2F13001C9B25F
:108A000009290AF1010A3FF629AE8C46DDE90A017F
:108A1000DFF8E8904FF099384F454FEA870308BFD9
:108A200046454FEA860243EA96730BD2921947EB0A
:108A30000303901843EB0301013D10EB0C062DB22C
:108A400041F100071AF8012FA2F1300C5FFA8CFCFB
:108A5000BCF1090FE0D9CDE90A01FFE5BEF1000F35
:108A600024D00C238DED128B8DF85030FEE60823B8
:108A7000CDE912678DF85030F8E6B7F5801F08BFD2
:108A8000002EBFF444AF0025D2E59AF80230303B07
:108A9000DAB2092A0AF1020A88BF002399D8EA1833
:108AA000B2F59A7FDDDC4FF0010E85E7049BB3B988
:108AB00053EC192B0C21CDE912238DF85010D5E67B
:108AC0009AF80220A2F13003D9B209290AF1020A68
:108AD0007FF658AFC7E580D0074F6D42D0E553EC25
:108AE0001A2BE7E7B5F5801F08BF002CBFF4BEAB1B
:108AF0004FF0000AFFF7E0BB38D902009999010056
:108B00002DE9F04F037A03F07F03043B8BB0082B71
:108B10000ED8DFE803F02973BC0DC00D050D110060
:108B2000D0E90001002908BFB0F5803FC0F0BB804C
:108B300000200BB0BDE8F08FD0E9004500220023F3
:108B40002046294621F0B4FE0028F2D0F3A3D3E951
:108B500000232046294621F0A1FE0028E9D0204626
:108B6000294621F0F7FE9EE0066800228DF82020BD
:108B700033782B2B00F001822D2B40F0AD810122A8
:108B8000737801921644A3F13002D2B2092A40F25E
:108B900027812E2B40F0A080002400254FF0000BF1
:108BA00096F801A0AAF13000C0B2092806F101062A
:108BB00000F26F81D64B4FF099329D424FEA85010A
:108BC00008BF94424FEA840741EA94710ED23F19DC
:108BD00045EB010117EB070841EB01090BF1FF3BE6
:108BE00018EB00040FFA8BFB49F1000516F801AFF2
:108BF000AAF13000C0B20928DFD94AE10268002199
:108C00008DF82010137A2B2B00F0B2812D2B00F061
:108C1000A98102F108070191A3F13002D2B2092A19
:108C200060D92E2B58D14FF0000B0024002597F867
:108C300001A0AAF13000C0B2092807F1010700F233
:108C4000A980B34B4FF09932BE469D424FEA850151
:108C500008BF94424FEA840C41EA94710ED21CEB97
:108C6000040C45EB01011CEB0C0641EB01070BF179
:108C7000FF3B34180FFA8BFB47F100051EF801AFDC
:108C8000AAF13000C0B20928DFD9774682E0007827
:108C90000BB0BDE8F08FD0E90001002908BFB0F5A6
:108CA000803F00D3002080B20BB0BDE8F08FBAF156
:108CB000000F40F00182019B002B00F0A081B5F174
:108CC000004F08BF012C3BD2644265EB4505CDE95E
:108CD00006450A238DF8203006A8FFF711FF0BB0D8
:108CE000BDE8F08F8B49D2B20023002400254FF05D
:108CF000993017F801AFA418AAF1300643EB050527
:108D0000F6B24FEA8508092E4FEA840E48EA9478B5
:108D10006FEA060B4FF0FF3CF2B24FF00003C6D8EB
:108D2000A94208BFA0420BD31EEB040E48EB050876
:108D30001EEB0E0448EB0805AC4508BFA345D8D28E
:108D40004FF0000B0023204629460A2221F080FF25
:108D5000A946A0461FFA8BF3B9F5200F03F1010BCA
:108D600008BFB8F1000F04460D460FFA8BFBE9D29D
:108D7000092E0BD80233DB1B07EB030B17F801AFEF
:108D8000AAF13002092A0FFA8BFBF5D9BAF12E0F9E
:108D90003FF44DAF0AF0DF03452B00F0F2800023D3
:108DA000BAF1000F98D19B442046294621F0C4FA1D
:108DB000BBF1000F40F35A81574D002405E05FEAF4
:108DC0006B0B04F1010400F0C2801BF0010FF6D020
:108DD000E3B205EBC303D3E9002321F0E3FAEEE7A6
:108DE0004C49D2B20023002400254FF0993016F8E8
:108DF00001AFA418AAF1300743EB0505FFB24FEA13
:108E0000850E092F4FEA840C4EEA947E6FEA07081C
:108E10004FF0FF39FAB24FF0000300F2F680A9429A
:108E200008BFA0420BD31CEB040C4EEB050E1CEB51
:108E30000C044EEB0E05A94508BFA045D7D24FF054
:108E4000000B0023204629460A2221F001FFA946F3
:108E5000A0461FFA8BF3B9F5200F03F1010B08BFF1
:108E6000B8F1000F04460D460FFA8BFBE9D2092F2B
:108E70000BD802339B1B06EB030B16F801AFAAF1CC
:108E80003002092A0FFA8BFBF5D9BAF12E0F3FF405
:108E900087AE0AF0DF03452B20D0BAF1000F7FF434
:108EA0001BAF2046294621F047FABBF1000F40F3E3
:108EB000E380194D002404E05FEA6B0B04F1010428
:108EC00045D01BF0010FF7D0E3B205EBC303D3E9A4
:108ED000002321F067FAEFE7019254E696F801A02B
:108EE000BAF12D0F00F09E80BAF12B0F00F0D9805F
:108EF000AAF13003DAB2092A06F10106CDD80BEB4C
:108F00000302B2F59A7F69DC002712E0AFF300801C
:108F1000999901009999991980D9020000000000DF
:108F2000E0FFEF4002EB400303EB0B02B2F59A7F48
:108F30005FDC16F801AFAAF13002D1B2092903EBC8
:108F40008300EFD9002F40F09D809B44A5E7019B53
:108F500013B101F1004319460C23CDE906018DF848
:108F60002030B9E6537A02F109070122019253E653
:108F7000537A019102F109074EE6737801920136A6
:108F800001E697F801A0BAF12D0F5DD0BAF12B0FD1
:108F90007DD0AAF13003DAB2092A07F101073FF6C2
:108FA000FEAE03EB0B02B2F59A7F17DC002606E05B
:108FB00002EB400303EB0B02B2F59A7F0DDC17F8CE
:108FC00001AFAAF13002D1B2092903EB8300EFD936
:108FD000002E3FF4E5AE5B42E2E666B9019B00205D
:108FE000002B52D13D490C23CDE906018DF82030EC
:108FF00072E6002FF2D000204FF00041F3E7082383
:10900000CDE906458DF8203066E6BAF1000F5CD157
:10901000019B002BF3D0B5F1004F08BF012CBFF42A
:109020000EAF51E696F802A0AAF13003DAB2092A8F
:1090300006F1020688BF002324D80BEB0302B2F529
:109040009A7FD8DC012774E797F802A0AAF13003D1
:10905000DAB2092A07F1020788BF0023BBD803EB65
:109060000B02B2F59A7FC6DC0126A8E73FF46FAF8A
:109070001B4DCBF1000BA0E63FF469AF184DCBF1CF
:10908000000B17E7ABEB030B07E71649ABE797F8C5
:1090900002A0AAF13003DAB2092A07F1020780D947
:1090A0007DE696F802A0AAF13003DAB2092A06F1A9
:1090B00002067FF624AFF0E6B5F5801F08BF002C4E
:1090C000BFF43EAE4FF0000B60E6B5F5801F08BF61
:1090D000002CBFF4B4AE4FF0000BD6E60000F07FDA
:1090E00038D902000000F0FF2DE9F04F037A03F0B9
:1090F0007F03043B89B0082B06D8DFE803F00A0A97
:109100005105590562056B009FEDC30B09B0BDE821
:10911000F08F026800218DF81810137A2B2B00F0C5
:10912000FA802D2B00F0F18002F108060191A3F1E5
:109130003002D2B2092A6DD92E2B65D10024002528
:109140004FF0000B96F801A0AAF13000C0B2092838
:1091500006F1010600F2B680B14B4FF099329D4204
:109160004FEA850108BF94424FEA840741EA9471AF
:109170000ED23F1945EB010117EB070841EB01093E
:109180000BF1FF3B18EB00040FFA8BFB49F10005D4
:1091900016F801AFAAF13000C0B20928DFD991E07A
:1091A000007821F085F841EC100B09B0BDE8F08F94
:1091B000D0E9000121F0C0F841EC100B09B0BDE886
:1091C000F08FD0E9000121F0BFF841EC100B09B09D
:1091D000BDE8F08F90ED000B09B0BDE8F08FBAF15B
:1091E000000F40F00F81019B002B00F0D880B5F1FB
:1091F000004F08BF012C3BD2644265EB4505CDE929
:1092000004450A238DF8183004A8FFF76DFF09B054
:10921000BDE8F08F8349D2B20023002400254FF02F
:10922000993016F801AFA418AAF1300743EB0505F1
:10923000FFB24FEA850E092F4FEA840C4EEA947E66
:109240006FEA07084FF0FF39FAB24FF00003C6D8B3
:10925000A94208BFA0420BD31CEB040C4EEB050E39
:109260001CEB0C044EEB0E05A94508BFA045D8D257
:109270004FF0000B0023204629460A2221F0E8FC8B
:10928000A946A0461FFA8BF3B9F5200F03F1010B95
:1092900008BFB8F1000F04460D460FFA8BFBE9D268
:1092A000092F0BD802339B1B06EB030B16F801AFFB
:1092B000AAF13002092A0FFA8BFBF5D9BAF12E0F69
:1092C0003FF440AF0AF0DF03452B29D00023BAF169
:1092D000000F99D19B442046294621F02DF8BBF17F
:1092E000000F74DD504D002404E05FEA6B0B04F1C5
:1092F00001043FD01BF0010FF7D0E3B205EBC3032D
:10930000D3E9002321F04EF8EFE7537A02F1090682
:10931000012201920BE7537A019102F1090606E757
:1093200096F801A0BAF12D0F3FD0BAF12B0F5DD006
:10933000AAF13003DAB2092A06F10106C6D803EB16
:109340000B02B2F59A7F47DC002706E002EB4003F0
:1093500003EB0B02B2F59A7F17DC16F801AFAAF106
:109360003002D1B2092903EB8300EFD9002FAED030
:109370005B42ACE7019B13B101F1004319460C239A
:10938000CDE904018DF818303EE72FB300204FF0EF
:1093900000410C23CDE904018DF8183034E708238F
:1093A000CDE904458DF818302EE796F802A0AAF111
:1093B0003003DAB2092A06F1020688BF0023D7D8A3
:1093C0000BEB0302B2F59A7FE0DC0127C5E7D1D0B1
:1093D000164DCBF1000B86E7019B002083B91449A1
:1093E0000C23CDE904018DF818300DE796F802A0A2
:1093F000AAF13003DAB2092A06F102069FD965E71D
:109400000C49EDE7B5F5801F08BF002CBFF430AF65
:109410004FF0000B52E700BF00000000000000000A
:10942000999901009999991980D9020038D90200B7
:109430000000F07F0000F0FF2DE9F04F017A01F00D
:109440007F0104398BB0082906D8DFE801F0216BD1
:10945000B405B905C405090000200BB0BDE8F08FC4
:10946000D0E90045B24B00222046294621F020FADF
:109470000028F2D0ACA3D3E900232046294621F0EE
:109480000DFA0028E9D02046294621F03BFA9EE05B
:10949000066800228DF8202033782B2B00F01182F3
:1094A0002D2B40F0C9810122737801921644A3F15B
:1094B0003002D2B2092A40F243812E2B40F0B08014
:1094C000002400254FF0000B96F801A0AAF130000F
:1094D000C0B2092806F1010600F28B81954B4FF0CE
:1094E00099329D424FEA850108BF94424FEA8407B2
:1094F00041EA94710ED23F1945EB010117EB0708C1
:1095000041EB01090BF1FF3B18EB00040FFA8BFB59
:1095100049F1000516F801AFAAF13000C0B20928E0
:10952000DFD966E1026800218DF82010137A2B2B19
:1095300000F0C2812D2B00F0B98102F108070191E2
:10954000A3F13002D2B2092A70D92E2B68D14FF084
:10955000000B0024002597F801A0AAF13000C0B24A
:10956000092807F1010700F2B980724B4FF09932D8
:10957000BE469D424FEA850108BF94424FEA840CE3
:1095800041EA94710ED21CEB040C45EB01011CEB7B
:109590000C0641EB01070BF1FF3B34180FFA8BFB74
:1095A00047F100051EF801AFAAF13000C0B209284A
:1095B000DFD9774692E090F900000BB0BDE8F08F5C
:1095C000D0E90001002908BF802800D3002040B264
:1095D0000BB0BDE8F08FD0E9001011F1800240F12E
:1095E0000003002B08BFB2F5807F28BF002148B2DE
:1095F0000BB0BDE8F08FBAF1000F40F00182019B83
:10960000002B00F0A081B5F1004F08BF012C3BD228
:10961000644265EB4505CDE906450A238DF8203007
:1096200006A8FFF709FF0BB0BDE8F08F4249D2B2A0
:109630000023002400254FF0993017F801AFA4183B
:10964000AAF1300643EB0505F6B24FEA8508092E6C
:109650004FEA840E48EA94786FEA060B4FF0FF3C1D
:10966000F2B24FF00003C6D8A94208BFA0420BD304
:109670001EEB040E48EB05081EEB0E0448EB080534
:10968000AC4508BFA345D8D24FF0000B00232046BD
:1096900029460A2221F0DCFAA946A0461FFA8BF3DC
:1096A000B9F5200F03F1010B08BFB8F1000F044614
:1096B0000D460FFA8BFBE9D2092E0BD80233DB1BC8
:1096C00007EB030B17F801AFAAF13002092A0FFAD2
:1096D0008BFBF5D9BAF12E0F3FF43DAF0AF0DF0353
:1096E000452B00F0F2800023BAF1000F98D19B4483
:1096F0002046294620F020FEBBF1000F40F35A819E
:109700000E4D002405E05FEA6B0B04F1010400F04C
:10971000C2801BF0010FF6D0E3B205EBC303D3E91F
:10972000002320F03FFEEEE70000000000C05F4095
:10973000000060C0999901009999991980D9020097
:10974000B849D2B20023002400254FF0993016F812
:1097500001AFA418AAF1300743EB0505FFB24FEAA9
:10976000850E092F4FEA840C4EEA947E6FEA0708B3
:109770004FF0FF39FAB24FF0000300F2EA80A9423D
:1097800008BFA0420BD31CEB040C4EEB050E1CEBE8
:109790000C044EEB0E05A94508BFA045D7D24FF0EB
:1097A000000B0023204629460A2221F051FAA9463F
:1097B000A0461FFA8BF3B9F5200F03F1010B08BF88
:1097C000B8F1000F04460D460FFA8BFBE9D2092FC2
:1097D0000BD802339B1B06EB030B16F801AFAAF163
:1097E0003002092A0FFA8BFBF5D9BAF12E0F3FF49C
:1097F0006BAE0AF0DF03452B20D0BAF1000F7FF4E7
:109800000FAF2046294620F097FDBBF1000F40F333
:10981000D780854D002404E05FEA6B0B04F101045E
:1098200039D01BF0010FF7D0E3B205EBC303D3E946
:10983000002320F0B7FDEFE7019238E696F801A08B
:10984000BAF12D0F00F09280BAF12B0F00F0CD800D
:10985000AAF13003DAB2092A06F10106CDD80BEBE2
:109860000302B2F59A7F5DDC002706E002EB4003BD
:1098700003EB0B02B2F59A7F5FDC16F801AFAAF199
:109880003002D1B2092903EB8300EFD9002F40F059
:109890009D809B44B1E7019B13B101F10043194640
:1098A0000C23CDE906018DF82030B9E6537A02F198
:1098B00009070122019243E6537A019102F1090757
:1098C0003EE6737801920136F1E597F801A0BAF10E
:1098D0002D0F5DD0BAF12B0F7DD0AAF13003DAB293
:1098E000092A07F101073FF6FEAE03EB0B02B2F5C2
:1098F0009A7F17DC002606E002EB400303EB0B0225
:10990000B2F59A7F0DDC17F801AFAAF13002D1B29F
:10991000092903EB8300EFD9002E3FF4E5AE5B424B
:10992000E2E666B9019B0020002B52D13F490C238F
:10993000CDE906018DF8203072E6002FF2D000202C
:109940004FF00041F3E70823CDE906458DF82030BC
:1099500066E6BAF1000F5CD1019B002BF3D0B5F1A4
:10996000004F08BF012CBFF41AAF51E696F802A0D1
:10997000AAF13003DAB2092A06F1020688BF0023F1
:1099800024D80BEB0302B2F59A7FD8DC012774E7E9
:1099900097F802A0AAF13003DAB2092A07F1020708
:1099A00088BF0023BBD803EB0B02B2F59A7FC6DC5D
:1099B0000126A8E73FF46FAF1D4DCBF1000BA0E6E9
:1099C0003FF469AF1A4DCBF1000B23E7ABEB030B70
:1099D00013E71849ABE797F802A0AAF13003DAB20F
:1099E000092A07F1020780D97DE696F802A0AAF1BC
:1099F0003003DAB2092A06F102067FF630AFFCE640
:109A0000B5F5801F08BF002CBFF43EAE4FF0000B31
:109A100060E6B5F5801F08BF002CBFF4C0AE4FF064
:109A2000000BE2E69999991980D902000000F07FB5
:109A300038D902000000F0FF2DE9F04F2DED028B28
:109A4000427D89B0044600911D46002A00F0BB808B
:109A5000267D2F2E31D8DFE816F0FA0030003000D6
:109A6000300030003000300030003000B400B4006E
:109A700030003000B40030003000300030003000E2
:109A80003000300030003000300030003000300056
:109A900030003000300030003000B40030003000C2
:109AA0003000300030003000300030003000300036
:109AB0003000300030003000C40001237B2E2373BF
:109AC00000F23C825A2E4DD9A6F15B03202B00F206
:109AD0003582DFE813F055013302330233023302DB
